:020000040800F2
:1000000078060020650100084F0A00084D0A000824
:1000100000000000000000000000000000000000E0
:10002000000000000000000000000000530A00086B
:100030000000000000000000510A0008550A0008F6
:1000400077010008770100087701000877010008B0
:1000500077010008490200087701000877010008CD
:100060007701000877010008770100087701000890
:100070007701000877010008770100087701000880
:100080007701000877010008770100087701000870
:100090007701000877010008770100087701000860
:1000A0007701000877010008770100087701000850
:1000B0007701000877010008770100087701000840
:1000C00000F002F800F03EF80CA030C80838241800
:1000D0002D18671EA246AB4654465D46AC4201D180
:1000E00000F030F87E460F3EB6460FCC0126334274
:1000F00000D0FB1A3343A246AB461847C00C0000A1
:10010000E00C0000103A02D378C878C1FAD8520740
:1001100001D330C830C101D504680C6070470000BD
:100120000023002400250026103A01D378C1FBD813
:10013000520700D330C100D50B6070471FB51FBDFB
:1001400010B510BD00F04DF81146FFF7F7FF00F0B5
:1001500099FC00F065F803B4FFF7F2FF03BC00F070
:100160006BF800000748804707480047FEE7FEE7B6
:10017000FEE7FEE7FEE7FEE704480549054A064BB1
:1001800070470000810A0008C100000878000020C4
:1001900078060020780200207802002001E004C0E8
:1001A000091F0429FBD28B0701D50280801CC907D7
:1001B00000D00270704700290BD0C30702D0027034
:1001C000401C491E022904D3830702D50280801CEB
:1001D000891EE3E70022EEE70022DFE77047704761
:1001E0007047754600F024F8AE4605006946534650
:1001F000C008C000854618B020B5FFF7BDFF60BC41
:10020000B64600260027C0C5C0C5C0C5C0C5C0C50C
:10021000C0C5C0C5C0C5403D490849008D467047AE
:1002200010B50446C046C0462046FFF794FF10BDF7
:10023000004870471000002001491820ABBEFEE7BF
:10024000260002007047000010B581B003200102B3
:10025000294802684A400260284A6B4600241C7004
:100260001C701C701C701C701C701C701C701C702E
:100270001C701C701C701C701C701C701C701C701E
:100280001C701C701C701C701C701C701C701C700E
:100290001C701C701C701C701C701C701C701C70FE
:1002A0001C701C701C701C701C701C701C701C70EE
:1002B0001C701C701C701C701C701C701C701C70DE
:1002C0001C701C701C701C701C701C701C701C70CE
:1002D0001C701C701C701C701C701C701C70403AD0
:1002E000BBD102684A4002600548016801220A4306
:1002F000026001B010BDC04614080048C0E1E4002F
:1003000014040140B0B5044600F00CF80546601C2A
:1003100002D021480078041900F004F8401BA042E4
:10032000FAD3B0BD054800687047C0461A48007847
:1003300002490A68101808607047C046740000201F
:1003400080B58548016810220A430260032000F04E
:1003500005F800F023F8002080BDC04670B50446C3
:100360007D20C0000C4E317800F014FC014682481C
:10037000006800F00FFC00F051FB0125032C08D8A9
:10038000002806D10025E84321462A4600F01CF843
:100390007460284670BDC0460000002082B0094845
:1003A0000168012211430160016811400191019926
:1003B000110742680A434260406808400090009874
:1003C00002B0704718100240002805D403220346EB
:1003D00093430A4A9A1803E00C220240064BD218B3
:1003E0008007C00E8901C9B28140FF238340106895
:1003F000984308431060704714ED00E000E400E00B
:10040000F0B581B0002847D00446534A1368012054
:1004100003408B4208D213680126B3430B43136099
:10042000126832408A4238D1009121688A074B4BCA
:1004300011D54A0707D507221202484B1B68134300
:10044000464A1360454B1A68F0239A43A368134346
:10045000424A1360414BC90722D13F49086801262F
:100460003040009A904205D90868B0430860086897
:10047000C00712D12078400706D50720000219686E
:100480008143E068084318601A681007810F3548F7
:10049000022912D2044650E00126304601B0F0BDD8
:1004A000616803290DD01A1F02290FD0012912D12A
:1004B000126892030646F0D511E0032926D12A4C92
:1004C0003BE01A6BD2030646E7D508E012689201BA
:1004D0000646E2D503E0126892070646DDD51868A5
:1004E0000326B04308431860FFF71CFF07461C4D66
:1004F0001A4B18680C210140606880008142ACD022
:10050000FFF710FFC01BA842F2D9C6E70321CB03B7
:100510001249896A0F240C401449095D94021A405B
:10052000240F134D2C5D9A4202D033049A4200E00E
:100530000D4800F02FFB4443084B18680006000FDD
:100540000C49085CC4400C4804600320FFF706FF18
:100550000026304601B0F0BD0020024004100240E9
:100560008813000000127A00006CDC02AA0D00085B
:100570009A0D00088A0D000808000020F0B587B029
:1005800004460120002C00D142E204902078C007EC
:10059000F84E05940CD071680C200140042900D05D
:1005A00090E03068800303D56068002800D120E126
:1005B0002078800721D570680007800F0ED0706802
:1005C0000C210140082900D09DE00320C003716880
:1005D00001400120C003814200D094E030688007D0
:1005E000059C03D5E068012800D002E13068F821BD
:1005F00088432169C90001433160059C20780007C8
:1006000024D42078400737D42078C00600D4D3E023
:1006100005984069411D00D1C2E0012800D02FE1BA
:10062000706B042101437163706B0121014371639D
:10063000FFF778FE0546706B800700D5B4E0FFF742
:1006400071FE411B03200229F5D9E1E1706AE169DD
:10065000002900D181E0012108437062FFF762FEAA
:100660000546706A8007CCD4FFF75CFE401B022869
:10067000F7D9032007B0F0BD012003900107F0690E
:100680000840029006D1F0690843F061F069084023
:10069000069006980191DF4F3868C0054AD4039848
:1006A0000402386820433860FFF73CFE054638688E
:1006B00020423FD1FFF736FE401B6428F7D90320C4
:1006C00007B0F0BD71680140082908D10320C003BC
:1006D0007168014001200004814200D161E7616836
:1006E00001204704002900D116E1052900D12AE1A3
:1006F000012900D12BE1010432688A433260810470
:100700003068884326E13068059CE168002936D0CE
:10071000012108433060FFF705FE05463068800779
:1007200000D563E7FFF7FEFD401B0228F6D9032042
:1007300007B0F0BD05988068002800D1B5E0052815
:1007400000D1C8E0012800D1C9E0306A039988438C
:100750003062306A04218843C4E00121884370621A
:10076000FFF7E0FD0546706A800700D449E7FFF710
:10077000D9FD401B0228F6D9032007B0F0BD0121A6
:1007800088433060FFF7CEFD05463068800700D40F
:1007900033E7FFF7C7FD411B03200229F5D937E1F5
:1007A000706B042188437063706BF821884305994E
:1007B0008969C900014371630598007880060BD5EB
:1007C00071680C2001400C2939D1706BC00303D52E
:1007D0000598006A01280CD10598446A002C00D1C4
:1007E000DFE070680C210140082905D1012C00D000
:1007F000C2E0049807B0F0BD0120020631680492FF
:10080000914331604706FFF78DFD0546022C0BD161
:10081000049C3068384200D1DBE0FFF783FD411BC8
:1008200003200229F5D9F3E03068384200D1B8E05E
:10083000FFF778FD411B03200229F5D9E8E0716834
:100840000140082905D10320C0037168014081429D
:10085000BBD0706B0599096A002900D1A7E001217E
:100860000C0420437063FFF75DFD0546706B20426A
:10087000B2D1FFF757FD411B03200229F6D9C7E08B
:10088000706B042101437163706B012188437063B5
:10089000FFF748FD0546706B80078DD5FFF742FDD9
:1008A000411B03200229F6D9B2E0306A039988433C
:1008B0003062306A042188433062574CFFF732FDC2
:1008C0000546306A80071DD5FFF72CFD411B03202C
:1008D000A142F6D99CE0306A042101433162306ABA
:1008E0000399084330624C4CFFF71CFD0546306A03
:1008F000800707D4FFF716FD401BA042F7D903205D
:1009000007B0F0BD02980028059C00D07CE6F06995
:1009100001998843F06177E6010432688A433260C6
:100920008004316881433160FFF7FCFC0546059C7B
:100930003068384200D13BE6FFF7F4FC411B03204E
:100940006429F5D964E0810432680A433260010405
:10095000306808433060FFF7E5FC054630683842F0
:1009600000D025E6FFF7DEFC401B6428F6D9032003
:1009700007B0F0BD001002400320C20370680240BF
:10098000F16A059CA36A9A42049D0DD10F22114081
:10099000236B994208D191040840E16A88422846B5
:1009A00036D1002007B0F0BD284607B0F0BD0121C8
:1009B0000C04A0437063FFF7B5FC0546706B204242
:1009C00000D109E7FFF7AEFC411B03200229F5D94E
:1009D0001EE0F06A0F218843059A116B0143F16212
:1009E0007B20C00371688143D06A0843916A014348
:1009F0007160306820433060FFF794FC0446306833
:100A00003842CED1FFF78EFC011B03200229F6D914
:100A100007B0F0BD0070004088130000401E010EBA
:100A200001D0012070470749074A506058480368C1
:100A30000B400321890759180160002090600721AD
:100A400011607047FFFFFF0010E000E0FEE7FEE7E7
:100A50007047704780B5FFF769FC07480168C829EF
:100A600006D106490A68802353400B6000210160CB
:100A70000168491C016080BD700000201408004816
:100A80007047000092B0FFF75BFC05AD281D3021D8
:100A9000FFF7A2FB00240E9410200990012608966F
:100AA000022705972846FFF769FD002803D0EFF3DA
:100AB000108072B6FEE7049403940294072001901C
:100AC00001A82146FFF79CFC002803D0EFF310801B
:100AD00072B6FEE7F104274802680A430260264D19
:100AE0002C60552109032A680A432A606C60AC60B7
:100AF000EC6019210C012146703169610321CA4360
:100B00001E490B460C3B186810401860081F03680C
:100B1000134003600868384308600868B043086001
:100B20001748016831430160816831438160114990
:100B3000486830434860134801680F2291430160C0
:100B4000114820210160FF200102104A13688B43E5
:100B5000B1035918116000060D490A688243F00775
:100B6000101808602046FFF7CDFB6869402141401E
:100B70006961F7E714100240000800480C000048C3
:100B8000000401400800014000E100E004E400E04E
:100B900020ED00E043088B421AD3002203098B4268
:100BA00079D3030A8B425ED3030B8B4242D3030CEF
:100BB0008B4227D30902FF2212BA030C8B4202D3C5
:100BC0001212090203D0030B8B4233D31AE0D3E095
:100BD000411A8041401C704703460B4371D44308BF
:100BE0008B42F5D3002203098B4254D3030A8B4274
:100BF00039D3030B8B421DD3030C8B4202D3944693
:100C00006EE0090AC30B8B4201D3CB03C01A5241D9
:100C1000830B8B4201D38B03C01A5241430B8B428F
:100C200001D34B03C01A5241030B8B4201D30B0378
:100C3000C01A5241C30A8B4201D3CB02C01A52419F
:100C4000830A8B4201D38B02C01A5241430A8B4262
:100C500001D34B02C01A5241030A8B4201D30B024B
:100C6000C01A5241CDD2C3098B4201D3CB01C01A65
:100C7000524183098B4201D38B01C01A524143096F
:100C80008B4201D34B01C01A524103098B4201D35D
:100C90000B01C01A5241C3088B4201D3CB00C01ACA
:100CA000524183088B4201D38B00C01A5241430842
:100CB0008B4201D34B00C01A5241411A52411000DD
:100CC0007047CA0F00D04942031000D3404253403E
:100CD00000229C4603098B422DD3030A8B4212D378
:100CE0008901FC2212BA030A8B420CD389019211AA
:100CF0008B4208D3890192118B4204D3890137D0EA
:100D0000921100E08909C3098B4201D3CB01C01ABB
:100D1000524183098B4201D38B01C01A52414309CE
:100D20008B4201D34B01C01A524103098B4201D3BC
:100D30000B01C01A5241C3088B4201D3CB00C01A29
:100D4000524183088B4201D38B00C01A5241D9D241
:100D500043088B4201D34B00C01A5241411A00D2C2
:100D600001465241104663465B1000D34042704733
:100D700063465B1000D3404201B50021004201D020
:100D8000C9430846C046C04602BD0000000000003E
:100D90000000010203040607080902030405060710
:100DA00008090A0B0C0D0E0F1010010203040506B2
:100DB0000708090A0B0C0D0E0F100000E00D0008CB
:100DC000000000201000000004010008F00D0008E1
:100DD000100000206806000020010008000000004C
:100DE000010000000400000000127A000000000072
:04000005080000C12E
:00000001FF
